:020000040000FA
:060000000A128A11FC2F18
:100CC400831203131F083F3940389F008316031310
:100CD4009F010800073083160313860087018801EB
:100CE4008312031386018701880108000A128A11FE
:100CF4006C260A128A110A128A1162260A128A11B1
:100D040008300A128A11FB260A128A11F3007308AA
:100D1400F400740883120313870000300A128A1146
:100D24009C260A128A11831203138800822E0A1247
:100D34008A110028F200C02E3F30FA2E0630FA2E17
:100D44005B30FA2E4F30FA2E6630FA2E6D30FA2EC2
:100D54007D30FA2E0730FA2E7F30FA2E6F30FA2EBD
:100D64007730FA2E7C30FA2E3930FA2E5E30FA2E95
:100D74007930FA2EA130FA2E0030FA2E7208F000E3
:100D8400F1017108003A0319C82EBE2E7008003A0A
:100D940003199E2E013A0319A02E033A0319A22E19
:100DA400013A0319A42E073A0319A62E013A03198E
:100DB400A82E033A0319AA2E013A0319AC2E0F3AAE
:100DC4000319AE2E013A0319B02E033A0319B22EB9
:100DD400013A0319B42E073A0319B62E013A03193E
:100DE400B82E033A0319BA2E013A0319BC2EBE2EAB
:100DF4000800F200B32F8316031305148316031798
:100E04000814C330831203139F05E72F83160313BB
:100E14008514831603178814831203131F08C33918
:100E240004389F00E72F8316031305158316031751
:100E34000815831203131F08C33908389F00E72FCE
:100E4400831603138515831603178815831203135A
:100E54001F08C3390C389F00E72F83160313851628
:100E6400831603170816831203131F08C339103897
:100E74009F00E72F8316031309148316031788169C
:100E8400831203131F08C33914389F00E72F8316F6
:100E940003130915831603170817831203131F0876
:100EA400C33918389F00E72F831603138915831657
:100EB40003178817831203131F08C3391C389F00B4
:100EC400E72F8316031306158316031709148312D9
:100ED40003131F08C33920389F00E72F8316031319
:100EE4008615831603178914831203131F08C33945
:100EF40024389F00E72F83160313861483160317E1
:100F04000915831203131F08C33928389F00E72FDC
:100F14008316031306168316031789158312031306
:100F24001F08C3392C389F00E72F831603130614B8
:100F3400831603170916831203131F08C3393038A5
:100F44009F00E72F8316031386168316031789164B
:100F5400831203131F08C33934389F00E72F00306E
:100F6400FB2F7208F000F1017108003A0319BB2F3E
:100F7400B12F7008003A0319FD2E013A0319082F06
:100F8400033A0319152F013A0319222F073A0319BB
:100F94002F2F013A03193C2F033A0319492F013A21
:100FA4000319562F0F3A0319632F013A0319702FAF
:100FB400033A03197D2F013A03198A2F073A0319BB
:100FC400972F013A0319A42FB12F1F140330F100F6
:100FD4009730F000F00BEC2FF10BEC2FF12F831274
:100FE40003139F149F1CF72FF82FF92FF42F1F10B2
:0C0FF4001E08080083010A128A11782EE2
:04400E00D4E0FFFFFC
:00000001FF
