:020000040000FA
:060000000A128A110C280F
:10000800FE00030EF0000A08F1000A128A11B62950
:100018000A128A110F2883010A128A117329F4001F
:10002800CB28831603130514831603170814C3304B
:10003800831203139F05FF28831603138514831661
:1000480003178814831203131F08C33904389F0049
:10005800FF28831603130515831603170815831243
:1000680003131F08C33908389F00FF28831603139A
:100078008515831603178815831203131F08C339C0
:100088000C389F00FF288316031385168316031761
:100098000816831203131F08C33910389F00FF285E
:1000A8008316031309148316031788168312031380
:1000B8001F08C33914389F00FF2883160313091536
:1000C800831603170817831203131F08C339183838
:1000D8009F00FF28831603138915831603178817B3
:1000E800831203131F08C3391C389F00FF28831687
:1000F80003130615831603170914831203131F0825
:10010800C33920389F00FF288316031386158316EA
:1001180003178914831203131F08C33924389F0057
:10012800FF288316031386148316031709158312F1
:1001380003131F08C33928389F00FF2883160313A9
:100148000616831603178915831203131F08C3396C
:100158002C389F00FF2883160313061483160317F1
:100168000916831203131F08C33930389F00FF286C
:10017800831603138616831603178916831203132F
:100188001F08C33934389F00FF280030132974082A
:10019800F200F3017308003A0319D328C92872083A
:1001A800003A03191528013A03192028033A0319BC
:1001B8002D28013A03193A28073A03194728013A22
:1001C80003195428033A03196128013A03196E28C0
:1001D8000F3A03197B28013A03198828033A0319AF
:1001E8009528013A0319A228073A0319AF28013ABA
:1001F8000319BC28C9281F140330F3009730F200F4
:10020800F20B0429F30B04290929831203139F1401
:100218009F1C0F29102911290C291F101E080800DE
:10022800F40038293F307229063072295B30722970
:100238004F307229663072296D3072297D307229EB
:10024800073072297F3072296F307229773072290E
:100258007C307229393072295E30722979307229DE
:10026800A1307229003072297408F200F301730872
:10027800003A0319402936297208003A0319162949
:10028800013A03191829033A03191A29013A0319DB
:100298001C29073A03191E29013A03192029033A90
:1002A80003192229013A031924290F3A0319262987
:1002B800013A03192829033A03192A29013A03198B
:1002C8002C29073A03192E29013A03193029033A30
:1002D80003193229013A03193429362908000A1268
:1002E8008A1197210A128A110A128A11C9210A123F
:1002F8008A1108300A128A1113200A128A11F5008D
:100308007508F600760883120313870000300A1276
:100318008A1114210A128A118312031388007D2975
:100328000A128A110C2883160313850107308600E8
:1003380087018801831203138501860187018801DB
:100348006730831603138F008B160B118B178112DE
:1003580001128111011581140114D930831203137C
:10036800810008000B1DB929BA29C2290B11D930FF
:100378008312031381000508013E850071088A0075
:10038800700E8300FE0E7E0E0900831203131F08F1
:0E0398003F3940389F00831603139F01080071
:04400E00D4E0FFFFFC
:00000001FF
