:020000040000FA
:060000000A128A110E280D
:10000800FE00030EF4000408F5000A08F6000A12C0
:100018008A1178290A128A111128FA01FB01FC01B8
:1000280083010A128A11C62983120313A200D22857
:10003800831603130514831603170814C330831299
:1000480003139F05062983160313851483160317C4
:100058008814831203131F08C33904389F00062924
:100068008316031305158316031708158312031344
:100078001F08C33908389F000629831603138515FE
:10008800831603178815831203131F08C3390C3806
:100098009F0006298316031385168316031708166F
:1000A800831203131F08C33910389F0006298316CB
:1000B80003130914831603178816831203131F08E2
:1000C800C33914389F0006298316031309158316AC
:1000D80003170817831203131F08C33918389F0022
:1000E80006298316031389158316031788178312A5
:1000F80003131F08C3391C389F00062983160313EE
:100108000615831603170914831203131F08C3392E
:1001180020389F00062983160313861583160317B4
:100128008914831203131F08C33924389F00062932
:1001380083160313861483160317091583120313F2
:100148001F08C33928389F0006298316031306168B
:10015800831603178915831203131F08C3392C3814
:100168009F0006298316031306148316031709161E
:10017800831203131F08C33930389F0006298316DA
:1001880003138616831603178916831203131F0891
:10019800C33934389F000629003018292208A000E6
:1001A800A1012108003A0319DA28D0282008003ACA
:1001B80003191C28013A03192728033A031934287C
:1001C800013A03194128073A03194E28013A03193D
:1001D8005B28033A03196828013A031975280F3A6E
:1001E80003198228013A03198F28033A03199C2816
:1001F800013A0319A928073A0319B628013A03193D
:10020800C328D0281F14053083120313A000A00BA5
:100218000B290E29831203139F149F1C14291529D7
:10022800162911291F101E080800F2003D293F3029
:100238007729063077295B3077294F307729663060
:1002480077296D3077297D307729073077297F30F6
:1002580077296F307729773077297C3077293930BB
:1002680077295E30772979307729713077290030FE
:1002780077297208F000F1017108003A031945293D
:100288003B297008003A03191B29013A03191D2953
:10029800033A03191F29013A03192129073A0319B7
:1002A8002329013A03192529033A03192729013A71
:1002B800031929290F3A03192B29013A03192D2962
:1002C800033A03192F29013A03193129073A031967
:1002D8003329013A03193529033A03193729013A11
:1002E800031939293B2908000B1C7B297C298D29F6
:1002F8008312031306188129822986290130F30005
:100308007308FB07861889298A298C290130FB0282
:100318000B100B1D90299129BD290B11F030831268
:10032800031381007C03031D9A299B29A7297808B8
:100338000A128A1119210A128A11831203138800DA
:1003480001308900B92902307C06031DAC29AD298A
:10035800B92977080A128A1119210A128A118312F7
:100368000313880002308900FC010130F300730890
:10037800FC0776088A0075088400740E8300FE0E58
:100388007E0E09000A128A1102220A128A110A1222
:100398008A112A220A128A118312031385017B0803
:1003A800870008300A128A1118200A128A1183124B
:1003B8000313A3002308F90079080F39A3002308C1
:1003C800F8007908A3002308F7007708A300043091
:1003D8000310A30CFF3E031DEC292308A4002408E6
:1003E800F70079087B020318FA29FB29FD2909156A
:1003F800D0290911D0290A128A110E28831603134D
:10040800850107308600870188018901831203135B
:1004180089018601870188018316031788018901EC
:100428006730831603138F008B160B118B150B1077
:10043800161496148B17811201128111011581145B
:100448000114F03083120313810008008312031390
:100458001F083F3940389F00831603139F01080087
:04400E00D4E0FFFFFC
:00000001FF
