:020000040000FA
:060000000A128A11FC2F18
:100DEA00831203131F083F3940389F0083160313E9
:100DFA009F010800073083160313860087018801C4
:100E0A008312031386018701880108000A128A11D6
:100E1A00FF260A128A110A128A11F5260A128A1163
:100E2A0001300A128A111C270A128A110028F200BC
:100E3A00C52F831603130514831603170814C3302A
:100E4A00831203139F05831603138514831603174E
:100E5A008814831203131F08C33904389F008316AA
:100E6A0003130515831603170815831203131F08A6
:100E7A00C33908389F008316031385158316031791
:100E8A008815831203131F08C3390C389F00831671
:100E9A0003138516831603170816831203131F08F4
:100EAA00C33910389F0083160313091483160317D6
:100EBA008816831203131F08C33914389F00831638
:100ECA0003130915831603170817831203131F0840
:100EDA00C33918389F00831603138915831603171D
:100EEA008817831203131F08C3391C389F008316FF
:100EFA0003130615831603170914831203131F0815
:100F0A00C33920389F0083160313861583160317E7
:100F1A008914831203131F08C33924389F008316C8
:100F2A0003138614831603170915831203131F0864
:100F3A00C33928389F00831603130616831603172E
:100F4A008915831203131F08C3392C389F0083168F
:100F5A0003130614831603170916831203131F08B3
:100F6A00C33930389F008316031386168316031776
:100F7A008916831203131F08C33934389F000800E7
:100F8A007208F000F101F01BF1037108003A03192D
:100F9A00CF2FFB2F7008003A03191E2F013A0319AD
:100FAA00282F033A0319342F013A0319402F073A1D
:100FBA0003194C2F013A0319582F033A0319642FC6
:100FCA00013A0319702F0F3A03197C2F013A0319BA
:100FDA00882F033A0319942F013A0319A02F073ACD
:100FEA000319AC2F013A0319B82FFB2F080083010C
:060FFA000A128A110B2F00
:00000001FF
