:020000040000FA
:060000000A128A11FC2F18
:100D4C00831203131F083F3940389F008316031387
:100D5C009F01080007308316031386008701880162
:100D6C008312031386018701880108000A128A1175
:100D7C00B0260A128A110A128A11A6260A128A11A0
:100D8C0001300A128A111B270A128A11F400740806
:100D9C00F5007508831203138700F00108080A1286
:100DAC008A11DE260A128A11C62E0A128A1100280E
:100DBC00E02E1A2F7008F100F2017208003A0319A4
:100DCC00E82EDF2E7108003A0319DF2E013A0319C1
:100DDC00DF2E033A0319DF2E013A0319DF2E073AEF
:100DEC000319DF2E013A0319DF2E033A0319DF2E04
:100DFC00013A0319DF2E0F3A0319DF2E013A0319BA
:100E0C00DF2E033A0319DF2E013A0319DF2E073ABE
:100E1C000319DF2E013A0319DF2E033A0319DF2ED3
:100E2C00013A0319DF2EDF2E0800F200C52F8316BE
:100E3C0003130514831603170814C330831203130A
:100E4C009F058316031385148316031788148312C6
:100E5C0003131F08C33904389F00831603130515A9
:100E6C00831603170815831203131F08C339083898
:100E7C009F00831603138515831603178815831299
:100E8C0003131F08C3390C389F00831603138516F0
:100E9C00831603170816831203131F08C33910385F
:100EAC009F008316031309148316031788168312E5
:100EBC0003131F08C33914389F0083160313091535
:100ECC00831603170817831203131F08C339183826
:100EDC009F00831603138915831603178817831233
:100EEC0003131F08C3391C389F0083160313061500
:100EFC00831603170914831203131F08C3392038F0
:100F0C009F00831603138615831603178914831207
:100F1C0003131F08C33924389F0083160313861448
:100F2C00831603170915831203131F08C3392838B6
:100F3C009F00831603130616831603178915831255
:100F4C0003131F08C3392C389F0083160313061490
:100F5C00831603170916831203131F08C33930387D
:100F6C009F008316031386168316031789168312A4
:100F7C0003131F08C33934389F000030FB2F72084D
:100F8C00F000F101F01BF1037108003A0319CF2FA7
:100F9C00C32F7008003A03191D2F013A0319272F8C
:100FAC00033A0319332F013A03193F2F073A031958
:100FBC004B2F013A0319572F033A0319632F013AA8
:100FCC0003196F2F0F3A03197B2F013A0319872F3F
:100FDC00033A0319932F013A03199F2F073A031968
:100FEC00AB2F013A0319B72FC32F080083010A1244
:040FFC008A11BC2E6C
:04400E00D4E0FFFFFC
:00000001FF
